:1002AD005000043F065B4F666D7D077F6F777C398D
:1002BD005E7971460018FEFDFBF7EFDF48001E0169
:1002CD0003070F1F3F7FFF4200280000410017006A
:1002DD0041006D0041006E0041000300410015001A
:1002ED0041007200410027004200010000410076EC
:1002FD000041009600410098004100990041009A8C
:10030D000041009B004C00891F1C1F1E1F1E1F1F3C
:10031D001E1F1E1F6040002D000000000000000089
:10032D0000000000000000000000000000000000C0
:10033D0000000000000000000000000000000000B0
:10034D0000000000000000000000000000000000A0
:10035D0000000000000000005000780000000000C8
:10036D00000000000000000000000041002A0041D4
:10037D0000970041009500410077004100140041B5
:10038D000088004100750041001600410000004149
:10039D00002B014100741541002C0042006F07E451
:0803AD0041007100410026002F
:100EB200900018E0FFAD06E4FB120EE07F017E0019
:100EC200D3EF9400EE940040147D507C03ED1D702E
:0D0ED200011CED4C70F7EF1F70E61E80E371
:010EDF0022F0
:10109200D3EF9400EE94004007EF1F70F31E80F030
:0110A200222B
:03000700C2A3226F
:0310BE00D2A32298
:0310C100B2A322B5
:100EE0008F80D2A7C2A7EB601174042DF582E43481
:100EF00000F583E04480F580800D74042DF582E4D4
:0C0F00003400F583E0F580D2A6C2A622E2
:100C6900AE07AA03A905120EB2900019E0FFAE0162
:100C7900AD060B120EBB90001AE0FFAE02AD061BCB
:100C8900120EBB90001BE0FF9000BBE0FD0B120EA3
:100C9900BB90001CE0FF9000BCE0FD1B120EBB9056
:100CA900001DE0FF9000BDE0FD120EE07F017E0017
:030CB900020EC266
:100DA600AA05A903AE07120EB29000BCE090001986
:100DB6006007E0FFAD020B8008E0FFAE02AD06E47F
:100DC600FB120EE0120EBE90001AE0FFAE01120EEC
:100DD600B790001BE0FF9000BBE0FD120EE07F0124
:050DE6007E00020EC2B8
:1010A300438901758C3C758AB0D2AFD2A9D28C2208
:100FCD009000B5EDF020B4151203B670107F01FE40
:100FDD00120EC220B40774011203CFFF229000B588
:030FED00E0FF2200
:100F85009000B5EDF020B5161203B670117F01FE85
:100F9500120EC220B50874011203CF7F0222900001
:040FA500B5E0FF2292
:100B55009000B5EBF0A3EAF0A3E9F020B63B9000D6
:100B6500B5E0FBA3E0FAA3E0F91203B6702B7F0111
:100B7500FE120EC220B63A9000B5E0FBA3E0FAA340
:100B8500E0F974011203CF9000B8E0FBA3E0FAA3EB
:100B9500E0F9E41203CF0210BE30B6159000B5E0BF
:100BA500FBA3E0FAA3E0F91203B6B40104E41203CF
:020BB500CF224D
:100FA9009000B5EDF020B7161203B670117F01FE5F
:100FB900120EC220B70874011203CF7F03229000DA
:040FC900B5E0FF226E
:100E22009000B5EDF020B4151203B670107F01FEEC
:100E3200120EC220B41474011203CFFF2230B40A7E
:100E42001203B6B40104E41203CF9000B5E0FF220E
:10068B009000B5EBF0A3EAF0A3E9F0A3EDF020B5F1
:10069B005B9000B5E0FBA3E0FAA3E0F91203B670A0
:1006AB004B7F01FE120EC220B55A9000B5E0FBA3A2
:1006BB00E0FAA3E0F974011203CF9000B9E0FBA3B9
:1006CB00E0FAA3E0F9E41203CF9000BCE0FBA3E057
:1006DB00FAA3E0F9E41203CF9000BFE0FBA3E0FA2A
:1006EB00A3E0F9E4F5F01204807F002230B51590F9
:1006FB0000B5E0FBA3E0FAA3E0F91203B6B40104E2
:0A070B00E41203CF9000B8E0FF22D3
:100F370020B7151203B670107F01FE120EC220B73C
:100F47001474011203CFFF2230B70A1203B6B4019B
:080F570004E41203CF7F002225
:1008A3009000B5EFF0A3EBF0A3EAF0A3E9F020B6D4
:1008B300499000BCE0FBA3E0FAA3E0F91203B67091
:1008C300397F01FE120EC220B6489000BCE0FBA3A4
:1008D300E0FAA3E0F974011203CF9000B6E0FBA3A2
:1008E300E0FAA3E0F9E41203CF9000B9E0FBA3E040
:1008F300FAA3E0F9E41203CFFF2230B6159000BC4F
:10090300E0FBA3E0FAA3E0F91203B6B40104E41296
:0809130003CF9000B5E0FF22C4
:10104B00741D2FF582E43400F583E0FFAE05AB068B
:09105B007D0812100FEFF4F5906E
:011064002269
:10100F00C3ED9BFEEFA806088002C313D8FCFEAD0C
:0D101F0003EFA805088002C333D8FC4EFF84
:01102C0022A1
:040003007590FF22D3
:10107F00438920758DFD758BFD439850D2ACC2AB63
:03108F00D28E22DC
:10079F001210A312107F12049F90002CEFF0120F73
:1007AF005F1210B3120825900076E070447B017A37
:1007BF00007977900026E0FD120FCD900026EFF024
:1007CF00E0FD120F85900026EFF09000B8EBF0A33C
:1007DF007400F0A37415F07A007995120B557B0114
:1007EF007A007976900026E0FD120FA9900026EF8F
:1007FF00F0900026E014600F1460111460132403AE
:10080F0070A2120E52809D1209918098120E828052
:06081F0093120715808E04
:03000B00020AEBFB
:100AEB00C0E0C0F0C083C082C0D075D000C000C0D1
:100AFB0001C002C003C004C005C006C007758C3C12
:100B0B00758AB0900071E004F0E0B4140BE4F0903F
:100B1B000000E004F0120F5F120FF0900096E060FF
:100B2B000E900002E02432F0900001E03400F0D08F
:100B3B0007D006D005D004D003D002D001D000D00E
:0A0B4B00D0D082D083D0F0D0E03289
:10082500900000E0C3943C4011E4F0900016E00411
:10083500F0900015E06003120D0F900016E0C394D0
:100845003C4008E4F0900075E004F0900075E0C3CA
:1008550094184010E4F0900074E004F012049F90A6
:10086500002CEFF090006FA3E0FF90002BE0FD124D
:10087500102D900074E0D39F40097401F090002B77
:10088500E004F090002BE0D3940C40117401F0903B
:0E0895000070E004F0700690006FE004F022A6
:100E5200900016E0FF75F00A84AEF0EF75F00A8498
:100E6200FF900000E0FD75F00A84ACF0ED75F00A29
:100E720084FBAD069000BBECF0A37401F0020DA65A
:1009910090006FE0FEA3E0FBAA067C007D0AFF1237
:1009A10004159000B7EDF07C007D0AAF03AE021292
:1009B1000415AA06AB077C007D0A1204159000B647
:1009C100EDF07C007D0AAF03AE02120415AA06AB5E
:1009D100077C007D0A1204159000B5EDF07C007DC6
:1009E1000AAF03AE02120415AA067C007D0A1204A6
:1009F10015AF05E0FDA3E0FBA3E09000BBF0E4A38D
:040A0100F0020DA64C
:100E820090002BE0FF75F00A84AEF0EF75F00A8453
:100E9200FF900074E0FD75F00A84ACF0ED75F00A85
:100EA20084FBAD069000BBECF0A37401F0020DA62A
:100FF000900077E0B40117900014E004F0E0B43CF6
:0F1000000DE4900077F0900026F0900014F0229D
:10049F0090006FE0FEA3E0FF90002BE0FD90007452
:0204AF00E0FB70
:0804B1009000B5EEF0A3EFF09E
:1004B900A3EBF0AF05A3EFF0C394035022E0FFB420
:1004C9000105740DF0800AEFB402069000B8740EAD
:1004D900F09000B6E024FFF09000B5E034FFF09012
:1004E90000B5E0FEA3E0FF7C007D64120415AB07B4
:1004F9009000B5E0FEA3E0FF7C007D64120415EBDB
:1005090075F002A4FFAC03EC1313543FC39FFFE43F
:1005190095F0FEED7A002FFFEA3EFEED1313543FEE
:100529007C002FFBEC3EFA9000B8E02401FFE43395
:10053900FE7D0D1204037D05120415EF2BFFEE3A23
:10054900FE9000B7E07C002FFFEC3ECF24FFCF34B4
:09055900FFFE7D07120415AF0539
:010562002276
:100F5F0090002CE0601912049F90002CEFF090008D
:100F6F0088E05407FD12104B900088E004F0221225
:060F7F0000031210C12264
:0300230002056370
:10056300C0E0C0F0C083C082C0D075D000C000C05E
:0D05730001C002C003C004C005C006C007DF
:10058000309861C298900073E599F0E0FF90009771
:10059000E0242DF582E43400F583EFF0900097E03D
:1005A00004F0E0C394404002E4F0EF640A70357B4D
:1005B000017A00792D12000E9000A0EFF07B017AF5
:1005C00000792DBF130512002680119000A0E0FDD8
:1005D00012016A7B017A007978120C131210B39021
:0405E0000097E4F0AC
:1005E400D007D006D005D004D003D002D001D0006B
:0B05F400D0D0D082D083D0F0D0E03215
:0B0026009000A1EBF0A3EAF0A3E9F0CA
:10003100E4A3F0A3F090006FF0A3F090002BF090F8
:100041000074F0A3F0900016F0900000F09000A171
:10005100E0FBA3E0FAA3E0F91203B6FF640D70031D
:10006100020169EF642F6009EF643A6004EFB42D77
:10007100109000A4E004F09000A2E475F0011204D5
:100081006A9000A4E01460741470030201101470EB
:1000910003020123147003020136147003020149A3
:1000A100240570A9E49000A6F09000A6E0C3940492
:1000B100509B9000A1E0FBA3E0FAA3E0F91203B684
:1000C10024D09000A5F0FB90006FE0FEA3E0FF7C40
:1000D100007D0A12040390006FEEF0A3EFF0EBFF36
:1000E100E02FF090006FE03400F09000A2E475F092
:1000F1000112046A9000A6E004F080AD9000A1E036
:10010100FBA3E0FAA3E0F9120D8790002B804A903F
:1001110000A1E0FBA3E0FAA3E0F9120D87900074BF
:1001210080379000A1E0FBA3E0FAA3E0F9120D876C
:1001310090007580249000A1E0FBA3E0FAA3E0F910
:10014100120D8790001680119000A1E0FBA3E0FA48
:10015100A3E0F9120D87900000EFF09000A2E47582
:08016100F00212046A02004ED4
:010169002273
:100D5F009000A1E0FBA3E0FAA3E02406F9E43AFA3D
:100D6F00120D879000A7EFF09000A1E0FBA3E0FA2F
:080D7F00A3E0240AF9E43AFAAA
:100D8700E4FEFD1203B624D0FFEE75F00AA42FFE91
:0E0D9700740129F9E43AFA0DEDB402E7AF0653
:010DA500222B
:0A10B3007F4090002DE4F0A3DFFC65
:0110BD002210
:100DEB00AB07AA06EB5403700AFC7D64120415EDE5
:100DFB004C701E7C007D64AF03AE02120415ED4CEB
:100E0B007012AE02AF037C017D90120415ED4C7095
:060E1B00037F01227F00AD
:010E210022AE
:10102D00A905E9B4020B7E00120DEBEF60037F1DE5
:0E103D0022748829F582E43400F583E0FF2256
:10000E00E4FF1203B6640D600A0F740129F9E43A95
:03001E00FA80EF76
:0100210022BC
:10016A009000A4EDF09000A1EBF0A3EAF0A3E9F06F
:10017A00E49000A5F0A3F0A3F0A3F0A3F0A3F0A3EA
:10018A00F0120BB79000A5EEF0A3EFF09000A4E0F8
:10019A00F964107025A3E0FEA3E0FF120DEBEF90C7
:1001AA000078600974CAF0A374C7F0800774B7F0C6
:1001BA00A374F1F090007A02024BE96418703512C8
:1001CA000D5F9000A8EFF0FB9000A5E0FEA3E0FF12
:1001DA00A3E0FD1204B19000A9EFF090007874D06A
:1001EA00F0A374C7F0A314F0A374DAF0EF2430A3D9
:1001FA00F0A3804D9000A4E0641670519000A1E035
:10020A00FBA3E0FAA3E02406120D839000A7EFF007
:10021A00FD9000A5E0FEA3E0FF120A799000A8EF86
:10022A00F0E0FD75F00A842430900078F0ED75F066
:10023A000A84E5F02430A3F0A374CCF0A374ECF0A4
:10024A00A3740DF0A3740AF0A3743BF0229000A4E7
:10025A00E0642A704D120D5F9000A8EFF09000A1A3
:10026A00E0FBA3E0FAA3E0240E120D839000AAEFAC
:10027A00F09000A1E0FBA3E0FAA3E02412120D83A0
:10028A009000ABEFF0FC9000A5E0FEA3E0FFA3E036
:10029A00FDA3E0FB9000AAE09000B0F0A3ECF012FE
:0202AA000CBC8A
:0102AC00222F
:100BB700E49000ACF0A3F0A3F0A3F09000ACE0C386
:100BC7009404503F1203B624D09000ADF0A3E0FE8A
:100BD700A3E0FF7C007D0A1204039000AEEEF0A3B1
:100BE700EFF09000ADE0FF9000AFE02FF09000AE87
:100BF700E03400F09000ACE004F0740129F9E43A25
:0B0C0700FA80B89000AEE0FEA3E0FF12
:010C120022BF
:0B0C13009000B5EBF0A3EAF0A3E9F0BD
:100C1E00A3EBF0A3EAF0A3E9F09000B5E0FBA3E0AC
:100C2E00FAA3E0F91203B6FF643B60138F99309973
:100C3E00FDC2999000B6E475F00112046A80DAE400
:100C4E00FF9000B8E0FBA3E0FAA3E0F98F82758372
:0A0C5E0000E41203E10FEFB410E709
:010C68002269
:0B0A79009000ACEEF0A3EFF0A3EDF056
:100A8400E4A3F0F9A3F07B011204B19000AFEFF0FE
:100A940070037407F09000ACA3E0FFA3E0FD121014
:100AA4002DA9079000AFE0FFC374069FFEA3E02EBC
:100AB400F0E0B4FF02E4F0C374089FFFC3E99FF9B8
:100AC40075F0078475F005A4FF9000B0E02FF0E9FD
:100AD40075F00784A9F0E9D39405400279059000E4
:060AE400B0E029F0E0FF84
:010AEA0022E9
:100CBC00900028EEF0A3EFF0900017EDF090006D8F
:100CCC00EBF09000B0E090006EF09000B1E090007E
:100CDC0003F09000157401F09000787449F0A3743F
:100CEC0074F0A37460F0A37473F0A3742DF0A37468
:100CFC006FF0A3746BF0A3740DF0A3740AF0A374DB
:030D0C003BF02297
:100D0F00900016E0FF900003E06F703B900075E0DD
:100D1F00FF90006EE06F702F90002BE0FF90001798
:100D2F00E0B5072B900074E0FF90006DE0B5071F52
:100D3F0090006FE0FEA3E0FF900028E0B50610A33F
:100D4F00E0B5070B0200071210BEE4900015F02269
:10106500E4FF742D2FF582E43400F583E0F5993023
:0910750099FDC2990FEFB440E9A6
:01107E00224F
:10071500120F0C12091B7B017A007998900096E064
:10072500FD120E22900096EFF0FD9000B9EBF0A3BC
:100735007400F0A37472F0A3EBF0A37400F0A3743B
:1007450027F0A3EBF0A37400F0A37401F07A00097D
:1007550012068B900096EFF0602AE0FF9000B974C6
:1007650001F0A37400F0A37476F0A37401F0A374F0
:1007750000F0A3749AF07B017A0079261208A39001
:100785000096EFF07B017A00799B120F37EF600935
:0A079500900096E06003120A0522AE
:100F0C00C3900002E094E8900001E09403400AE4EE
:100F1C00F0A3F0900027E004F0900027E0C3943C8D
:0B0F2C004008E4F0900072E004F022A6
:10091B00900072E0FF75F00A849000B6E5F0F0EFFE
:10092B0075F00A849000B5F0900027E0FF75F00A8F
:10093B00849000B7E5F0F0EF75F00A84FB900001AE
:10094B00E0FEA3E0FF7C007D0A1204157C007D0A0B
:10095B00120415AA05900001E0FEA3E0FF7C007DC8
:10096B000A1204157C007D0A120415AE079000B51F
:10097B00E0FFA3E0FDA3E09000BBF0A3EEF0AE021E
:06098B00A3EEF0020C696E
:100A0500900072E0FA900027E0FB900001E0FEA361
:100A1500E0FF7C007D0A120415EA75F00A84243093
:100A2500900078F0EA75F00A84E5F02430A3F0A38D
:100A3500743AF0EB75F00A842430A3F0EB75F00AF4
:100A450084E5F02430A3F0A3743AF0EF75F00A843E
:100A55002430A3F0EF75F00A84E5F02430A3F0A369
:100A6500740DF0A3740AF0A3743BF07B017A00794E
:040A750078020C13E4
:030000000205FFF7
:0C05FF00787FE4F6D8FD758107020646FF
:1003B600BB010689828A83E0225002E722BBFE0245
:0903C600E32289828A83E4932278
:1003CF00BB010689828A83F0225002F722BBFE010D
:0203DF00F32207
:1003E100F8BB010DE58229F582E5833AF583E8F052
:1003F100225006E92582C8F622BBFE05E92582C8FE
:02040100F222E5
:10040300EF8DF0A4A8F0CF8CF0A428CE8DF0A42E0D
:02041300FE22C7
:10041500BC000BBE0029EF8DF084FFADF022E4CCCB
:10042500F875F008EF2FFFEE33FEEC33FCEE9DEC94
:10043500984005FCEE9DFE0FD5F0E9E4CEFD22EDDA
:10044500F8F5F0EE8420D21CFEADF075F008EF2F24
:10045500FFED33FD4007985006D5F0F222C398FD15
:050465000FD5F0EA22B2
:10046A00C5F0F8A3E028F0C5F0F8E582158270021D
:06047A001583E038F022BA
:10048000BB010A89828A83F0E5F0A3F0225006F7C7
:0F04900009A7F01922BBFE06F3E5F009F31922C4
:10060B0002079FE493A3F8E493A34003F68001F25F
:10061B0008DFF48029E493A3F85407240CC8C333F0
:10062B00C4540F4420C8834004F456800146F6DFBF
:10063B00E4800B01020408102040809002ADE47EA0
:10064B00019360BCA3FF543F30E509541FFEE493B4
:10065B00A360010ECF54C025E060A840B8E493A37B
:10066B00FAE493A3F8E493A3C8C582C8CAC583CAA6
:10067B00F0A3C8C582C8CAC583CADFE9DEE780BE5E
:0103B5000047
:00000001FF
