:1002AC0010093F065B4F666D7D077F6F777C395E6B
:1002BC007971061BFEFDFBF7EFDF08210103070F29
:1002CC001F3F7FFF025200000C561F1C1F1E1F1EDB
:1002DC001F1F1E1F1E1F20202C00000000000000EE
:1002EC000000000000000000000000000000000002
:1002FC000000000000000000000162000154000139
:10030C001900015500015100011A00010800012AD1
:10031C0001015015012B00024C07E4014E0001298C
:01032C0000D0
:0D057C00AD07AF1BE4FB1206177F017E00E8
:10058900D3EF9400EE940040147D507C03ED1D7070
:0D059900011CED4C70F7EF1F70E61E80E3B3
:0105A6002232
:03000700C2A3226F
:03070300D2A3225C
:03070600B2A32279
:100617008F80D2A7C2A7EB600B74092DF8E6448040
:10062700F580800774092DF8E6F580D2A6C2A622C8
:10051800AA03A90512057CAD010BAF1C120582AD1B
:10052800021BAF1D1205820BAD78AF1E1205821B90
:10053800AD79AF1F120582AD7AAF201206177F0181
:050548007E00020589A0
:10054D00AA05A90312057CE574AD0260030B8002B8
:10055D00E4FBAF1C120617120585AD01AF1D120588
:0F056D0080AD73AF1E1206177F017E0002058955
:1006E900438901758C3C758AB0D2AFD2A9D28C22CC
:100675008D6D20B41512018E70107F01FE12058953
:0D06850020B40774011201A7FF22AF6D22FF
:100657008D6D20B51612018E70117F01FE1205896E
:0E06670020B50874011201A77F0222AF6D2298
:0206D700AB0571
:0F06D90074202FF8E6FF7D08120637EFF4F59036
:0106E80022EF
:10063700C3ED9BFEEFA806088002C313D8FCFEADEE
:0F06470003EFA805088002C333D8FCFFEE42077B
:010656002281
:040003007590FF22D3
:1006C400438920758DFD758BFD439850D2ACC2AB28
:0306D400D28E22A1
:10049E001206E91206C41200F08F2B1206921206F3
:1004AE00F91204527B007A007954AD291206758F29
:1004BE0029AD291206578F29E52914600C14600EF8
:1004CE00240270DD1205A780D812039E80D3120578
:0304DE00CD80CE00
:03000B00020402EA
:10040200C0E0C0F0C083C082C0D075D000C000C0C0
:1004120001C002C003C004C005C006C007758C3C01
:10042200758AB0054EE54EB41408754E00050812E3
:10043200069212000ED007D006D005D004D003D009
:1004420002D001D000D0D0D082D083D0F0D0E03220
:10045200E508C3943C4005E4F508051AE51AC3947F
:100462003C4005E4F51A0551E551C39418400AE4ED
:10047200F55105501200F08F2BAF2A1206ADE55050
:10048200D39F4005755001052AE52AD3940C400BF1
:0C049200752A01054DE54D7002054C2255
:1005A700E51A75F00A84ADF0E51A75F00A84FFE5DF
:1005B7000875F00A84AEF0E50875F00A84FB8E73BF
:0605C70075740102054DF0
:10039E00AB4DAA4C7C007D0AAF03AE021201CB8D91
:1003AE006F7C007D0AAF03AE021201CBAA06AB072B
:1003BE007C007D0A1201CB8D6E7C007D0AAF03AEF0
:1003CE00021201CBAA06AB077C007D0A1201CB8D6F
:1003DE006D7C007D0AAF03AE021201CBAA067C0033
:1003EE007D0A1201CBAF05856F73E4F574AB6EAD6C
:0403FE006D02054D3A
:1005CD00E52A75F00A84ADF0E52A75F00A84FFE599
:1005DD005075F00A84AEF0E55075F00A84FB8E7309
:0605ED0075740102054DCA
:10000E00E554B4010E0519E519B43C07E4F554F5B1
:04001E0029F5192285
:0800F000AB50AD2AAF4DAE4C40
:0400F8008E6D8F6E0C
:1000FC008B6F8D70E570C39403501AE570B40105D5
:10010C0075700D8008E570B4020375700EE56E1500
:10011C006E7002156DAE6DAF6E7C007D641201CBFE
:10012C00AB07AE6DAF6E7C007D641201CBEB75F04E
:10013C0002A4FFEB1313543FC39FFFE495F0FEEDB5
:10014C007A002FFFEA3EFEED1313543F7C002FFB89
:10015C00EC3EFAE5702401FFE433FE7D0D1201B98B
:10016C007D051201CBEF2BFFEE3AFE7C00EF256FE5
:10017C00FFEC3ECF24FFCF34FFFE7D071201CBAF47
:01018C00056D
:01018D00224F
:10069200E52B60101200F08F2BE5555407FD120672
:0B06A200D705552212000312070622A4
:0300230002032EA7
:10032E00C0E0C0F0C083C082C0D075D000C000C095
:10033E0001C002C003C004C005C006C0073098301B
:10034E00C29885994F742C2562F8A64F0562E56216
:10035E00C394204003756200E54FB40A13C2AC7B10
:10036E00007A00792C1200261206F9756200D2ACC2
:10037E00309902C299D007D006D005D004D003D050
:10038E0002D001D000D0D0D082D083D0F0D0E032D5
:060026008B678A688969FE
:10002C00E4F56AF56BF54CF54DF52AF550F551F5FF
:10003C001AF508AB67AA68A96912018EFF640D70E6
:10004C00030200EFEF642F6009EF643A6004EFB431
:10005C002D0D056A74012569F569E43568F568E5C7
:10006C006A14605014605414605814605C1460601E
:10007C00240570BFE4F56CE56CC3940450B5AB6714
:10008C00AA68A96912018E24D0F56BAE4CAF4D7CD9
:10009C00007D0A1201B98E4C8F4DE56B254DF54D47
:1000AC00E4354CF54C74012569F569E43568F5685F
:1000BC00056C80C31205F38F2A801A1205F38F503A
:1000CC0080131205F38F51800C1205F38F1A8005E3
:1000DC001205F38F0874022569F569E43568F56833
:0300EC0002003FD0
:0100EF0022EE
:0605F300AB67AA68A969CC
:1005F900E4FEFD12018E24D0FFEE75F00AA42FFE51
:0D060900740129F9E43AFA0DBD02E8AF06CC
:0106160022C1
:0906F9007F20782CE4F608DFFCF8
:0107020022D4
:1004E100AB07AA06EB5403700AFC7D641201CBED45
:1004F1004C701E7C007D64AF03AE021201CBED4C4B
:100501007012AE02AF037C017D901201CBED4C70F5
:06051100037F01227F00C0
:0105170022C1
:1006AD00A907B9020B7E001204E1EF60037F1D2242
:0706BD00745529F8E6FF2245
:03000000020220D9
:0C022000787FE4F6D8FD75817A02026751
:10018E00BB010689828A83E0225002E722BBFE026F
:09019E00E32289828A83E49322A2
:1001A700BB010689828A83F0225002F722BBFE0137
:0201B700F32231
:1001B900EF8DF0A4A8F0CF8CF0A428CE8DF0A42E5A
:0201C900FE2214
:1001CB00BC000BBE0029EF8DF084FFADF022E4CC18
:1001DB00F875F008EF2FFFEE33FEEC33FCEE9DECE1
:1001EB00984005FCEE9DFE0FD5F0E9E4CEFD22ED27
:1001FB00F8F5F0EE8420D21CFEADF075F008EF2F71
:10020B00FFED33FD4007985006D5F0F222C398FD61
:05021B000FD5F0EA22FE
:10022C0002049EE493A3F8E493A34003F68001F246
:10023C0008DFF48029E493A3F85407240CC8C333D3
:10024C00C4540F4420C8834004F456800146F6DFA2
:10025C00E4800B01020408102040809002ACE47E84
:10026C00019360BCA3FF543F30E509541FFEE49397
:10027C00A360010ECF54C025E060A840B8E493A35E
:10028C00FAE493A3F8E493A3C8C582C8CAC583CA89
:10029C00F0A3C8C582C8CAC583CADFE9DEE780BE41
:01032D0000CF
:00000001FF
