:1003A9005000013F065B4F666D7D077F6F777C3993
:1003B9005E7971460013FEFDFBF7EFDF4800190176
:1003C90003070F1F3F7FFF42006B00004C00771FA0
:1003D9001C1F1E1F1E1F1F1E1F1E1F604000250001
:1003E9000000000000000000000000000000000004
:1003F90000000000000000000000000000000000F4
:1004090000000000000000000000000000000000E3
:10041900000000000000000000000000000000488B
:10042900006E0000000000000000410022004100B1
:10043900830041006D004100110041007600410038
:100449006A004100120041000000410023014100FF
:1004590069154100240042006507E4410067004135
:030469000021006F
:10095400900013E0FFAD06E4FB1209827F017E00E4
:10096400D3EF9400EE940040147D507C03ED1D7091
:0D097400011CED4C70F7EF1F70E61E80E3D4
:010981002253
:100ACD00D3EF9400EE94004007EF1F70F31E80F0FB
:010ADD0022F6
:03000700C2A3226F
:030AF900D2A32263
:030AFC00B2A32280
:100982008F80D2A7C2A7EB601174012DF582E434E7
:1009920000F583E04480F580800D74012DF582E43A
:0C09A2003400F583E0F580D2A6C2A62246
:1007A700AE07AA03A905120954900014E0FFAE0191
:1007B700AD060B12095D900015E0FFAE02AD061BFA
:1007C70012095D900016E0FF9000A6E0FD0B1209EC
:1007D7005D900017E0FF9000A7E0FD1B12095D90F8
:1007E7000018E0FF9000A8E0FD1209827F017E005B
:0307F70002096490
:10084600AA05A903AE071209549000A2E09000146D
:100856006007E0FFAD020B8008E0FFAE02AD06E4E4
:10086600FB120982120960900015E0FFAE01120921
:1008760059900016E0FF9000A1E0FD1209827F0169
:050886007E0002096480
:100ADE00438901758C3C758AB0D2AFD2A9D28C22D3
:100A220090009BEDF020B41512021B70107F01FEA6
:100A320012096420B4077401120234FF2290009B51
:030A4200E0FF22B0
:1009FE0090009BEDF020B51612021B70117F01FEC8
:100A0E0012096420B50874011202347F022290008C
:040A1E009BE0FF2238
:100AA00074182FF582E43400F583E0FFAE05AB0641
:090AB0007D08120A64EFF4F590D0
:010AB900221A
:100A6400C3ED9BFEEFA806088002C313D8FCFEADBD
:0D0A740003EFA805088002C333D8FC4EFF35
:010A81002252
:040003007590FF22D3
:100ABA00438920758DFD758BFD439850D2ACC2AB2E
:030ACA00D28E22A7
:1007FA00120ADE120ABA1202E5900024EFF0120978
:10080A00D8120AEE12059A7B017A00796D900021BE
:10081A00E0FD120A22900021EFF0FD1209FE90007D
:10082A0021EFF014600C14600E240270D71208F441
:0C083A0080D212060F80CD12092480C865
:03000B0002075198
:10075100C0E0C0F0C083C082C0D075D000C000C06E
:1007610001C002C003C004C005C006C007758C3CAF
:10077100758AB0900067E004F0E0B4140BE4F090E7
:100781000000E004F01209D8120A45D007D006D0C3
:1007910005D004D003D002D001D000D0D0D082D077
:0607A10083D0F0D0E0322D
:10059A00900000E0C3943C4008E4F0900012E004AC
:1005AA00F0900012E0C3943C4008E4F090006AE046
:1005BA0004F090006AE0C394184010E4F0900069D7
:1005CA00E004F01202E5900024EFF0900065A3E049
:1005DA00FF900023E0FD120A82900069E0D39F4059
:1005EA00097401F0900023E004F0900023E0D39412
:1005FA000C40117401F0900066E004F0700690005F
:05060A0065E004F02290
:1008F400900012E0FF75F00A84AEF0EF75F00A8400
:10090400FF900000E0FD75F00A84ACF0ED75F00A8C
:1009140084FBAD069000A1ECF0A37401F00208463C
:10060F00900065E0FEA3E0FBAA067C007D0AFF12C6
:10061F00027A90009DEDF07C007D0AAF03AE0212CE
:10062F00027AAA06AB077C007D0A12027A90009C20
:10063F00EDF07C007D0AAF03AE0212027AAA06AB80
:10064F00077C007D0A12027A90009BEDF07C007D02
:10065F000AAF03AE0212027AAA067C007D0A1202CA
:10066F007AAF05E0FDA3E0FBA3E09000A1F0E4A3C7
:04067F00F002084637
:10092400900023E0FF75F00A84AEF0EF75F00A84BE
:10093400FF900069E0FD75F00A84ACF0ED75F00AF3
:1009440084FBAD069000A1ECF0A37401F00208460C
:100A450090006DE0B40117900011E004F0E0B43CB3
:0F0A55000DE490006DF0900021F0900011F02260
:1002E500900065E0FEA3E0FF900023E0FD9000692B
:0202F500E0FB2C
:0802F70090009BEEF0A3EFF074
:1002FF00A3EBF0AF05A3EFF0C394035022E0FFB4DC
:10030F000105740DF0800AEFB4020690009E740E82
:10031F00F090009CE024FFF090009BE034FFF09001
:10032F00009BE0FEA3E0FF7C007D6412027AAB0726
:10033F0090009BE0FEA3E0FF7C007D6412027AEB4D
:10034F0075F002A4FFAC03EC1313543FC39FFFE4FB
:10035F0095F0FEED7A002FFFEA3EFEED1313543FAA
:10036F007C002FFBEC3EFA90009EE02401FFE4336B
:10037F00FE7D0D1202687D0512027AEF2BFFEE3A19
:10038F00FE90009DE07C002FFFEC3ECF24FFCF348A
:09039F00FFFE7D0712027AAF0592
:0103A8002232
:1009D800900024E060191202E5900024EFF09000E6
:1009E80076E05407FD120AA0900076E004F0221287
:0609F8000003120AFC22BC
:0300230002046D67
:10046D00C0E0C0F0C083C082C0D075D000C000C055
:0D047D0001C002C003C004C005C006C007D6
:10048A00309861C298900068E599F0E0FF90008387
:10049A00E02425F582E43400F583EFF0900083E050
:1004AA0004F0E0C394204002E4F0EF640A70357B64
:1004BA00017A00792512000E900088EFF07B017A0C
:1004CA00007925BF13051200268011900088E0FDEF
:1004DA001201277B017A00796E1208C2120AEE9085
:0904EA000083E4F0309902C2998C
:1004F300D007D006D005D004D003D002D001D0005D
:0B050300D0D0D082D083D0F0D0E03206
:0B002600900089EBF0A3EAF0A3E9F0E2
:10003100E4A3F0A3F0900065F0A3F0900023F0900A
:100041000069F0A3F0900012F0900000F090008998
:10005100E0FBA3E0FAA3E0F912021BFF640D7003B9
:10006100020126EF642F6009EF643A6004EFB42DBA
:100071001090008CE004F090008AE475F001120207
:10008100CF90008CE014606814606D14607214608D
:100091007714607C240570B5E490008EF090008E9A
:1000A100E0C3940450A7900089E0FBA3E0FAA3E029
:1000B100F912021B24D090008DF0FB900065E0FE48
:1000C100A3E0FF7C007D0A120268900065EEF0A3B8
:1000D100EFF0EBFFE02FF0900065E03400F09000CE
:1000E1008AE475F0011202CF90008EE004F080AD39
:1000F1001209AE900023801E1209AE90006980168D
:100101001209AE90006A800E1209AE9000128006AC
:100111001209AE900000EFF090008AE475F002122F
:0501210002CF02004EB8
:0101260022B6
:0B09AE00900089E0FBA3E0FAA3E0F951
:1009B900E4FEFD12021B24D0FFEE75F00AA42FFEFF
:0E09C900740129F9E43AFA0DEDB402E7AF0625
:0109D70022FD
:0A0AEE007F40900025E4F0A3DFFC38
:010AF80022DB
:10088B00AB07AA06EB5403700AFC7D6412027AEDE7
:10089B004C701E7C007D64AF03AE0212027AED4CED
:1008AB007012AE02AF037C017D9012027AED4C7098
:0608BB00037F01227F0013
:0108C1002214
:100A8200A905E9B4020B7E0012088BEF60037F1DFB
:0E0A920022747629F582E43400F583E0FF2219
:10000E00E4FF12021B640D600A0F740129F9E43A31
:03001E00FA80EF76
:0100210022BC
:1001270090008CEDF0900089EBF0A3EAF0A3E9F0E2
:10013700E490008DF0A3F0A3F0A3F0A3F01206F56E
:1001470090008DEEF0A3EFF090008CE0F9B410254D
:10015700A3E0FEA3E0FF12088BEF90006E60097426
:10016700CAF0A374C7F0800774B7F0A374F1F090D6
:100177000070020217E96418704D900089E0FBA334
:10018700E0FAA3E02406F9E43AFA1209B990008FDD
:10019700EFF0900089E0FBA3E0FAA3E0240AF9E47A
:1001A7003AFA1209B9900090EFF0FB90008DE0FE4B
:1001B700A3E0FFA3E0FD1202F7900091EFF02430D7
:1001C70090006EF0A3804990008CE0641670449014
:1001D7000089E0FBA3E0FAA3E02406F9E43AFA1267
:1001E70009B990008FEFF0FD90008DE0FEA3E0FFCE
:1001F700120683900090EFF0E0FD75F00A8424303A
:1002070090006EF0ED75F00A84E5F02430A3F0A3BA
:03021700743AF046
:01021A0022C1
:1006F500E4900092F0A3F0A3F0A3F0900092E0C381
:100705009404503F12021B24D0900093F0A3E0FE06
:10071500A3E0FF7C007D0A120268900094EEF0A32E
:10072500EFF0900093E0FF900095E02FF09000949B
:10073500E03400F0900092E004F0740129F9E43A05
:0B074500FA80B8900094E0FEA3E0FFF3
:010750002286
:1008C20012021BFF643A600E8F993099FD74012960
:1008D200F9E43AFA80EAE4FF900089E0FBA3E0FA47
:1008E200A3E0F98F82758300E41202460FEFB40889
:0108F200E71E
:0108F30022E2
:0B068300900092EEF0A3EFF0A3EDF06A
:10068E00E4A3F0F9A3F07B011202F7900095EFF0CE
:10069E0070037407F0900092A3E0FFA3E0FD120A2E
:1006AE0082A907900095E0FFC374069FFEA3E02E7B
:1006BE00F0E0B4FF02E4F0C374089FFFC3E99FF9B2
:1006CE0075F0078475F005A4FF900096E02FF0E911
:1006DE0075F00784A9F0E9D39405400279059000DE
:0606EE0096E029F0E0FF98
:0106F40022E3
:0300000002050EE8
:0C050E00787FE4F6D8FD758107020555E2
:10021B00BB010689828A83E0225002E722BBFE02E1
:09022B00E32289828A83E4932214
:10023400BB010689828A83F0225002F722BBFE01A9
:02024400F322A3
:10024600F8BB010DE58229F582E5833AF583E8F0EE
:10025600225006E92582C8F622BBFE05E92582C89A
:02026600F22282
:10026800EF8DF0A4A8F0CF8CF0A428CE8DF0A42EAA
:02027800FE2264
:10027A00BC000BBE0029EF8DF084FFADF022E4CC68
:10028A00F875F008EF2FFFEE33FEEC33FCEE9DEC31
:10029A00984005FCEE9DFE0FD5F0E9E4CEFD22ED77
:1002AA00F8F5F0EE8420D21CFEADF075F008EF2FC1
:1002BA00FFED33FD4007985006D5F0F222C398FDB2
:0502CA000FD5F0EA224F
:1002CF00C5F0F8A3E028F0C5F0F8E58215827002BA
:0602DF001583E038F02257
:10051A000207FAE493A3F8E493A34003F68001F2F6
:10052A0008DFF48029E493A3F85407240CC8C333E2
:10053A00C4540F4420C8834004F456800146F6DFB1
:10054A00E4800B01020408102040809003A9E47E95
:10055A00019360BCA3FF543F30E509541FFEE493A6
:10056A00A360010ECF54C025E060A840B8E493A36D
:10057A00FAE493A3F8E493A3C8C582C8CAC583CA98
:10058A00F0A3C8C582C8CAC583CADFE9DEE780BE50
:01046C00008F
:00000001FF
