:10028C005000023F065B4F666D7D077F6F777C39B0
:10029C005E7971460016FEFDFBF7EFDF48001C018E
:1002AC0003070F1F3F7FFF42002500004100150090
:1002BC0041006A0041006B00410001004100130045
:1002CC004C00841F1C1F1E1F1E1F1F1E1F1E1F6085
:1002DC0040002A00000000000000000000000000A8
:1002EC000000000000000000000000000000000002
:1002FC0000000000000000000000000000000000F2
:10030C0000000000000000000000000000000000E1
:10031C00000000500073000000000000000000000E
:10032C000000000000004100270041009100410046
:10033C009000410072004100120041008300410016
:10034C0071004100140041000000410028014100EF
:10035C0070154100290042006C07E441006E004119
:03036C000024006A
:100B6900900016E0FFAD06E4FB120B977F017E00B3
:100B7900D3EF9400EE940040147D507C03ED1D707A
:0D0B8900011CED4C70F7EF1F70E61E80E3BD
:010B9600223C
:100CD200D3EF9400EE94004007EF1F70F31E80F0F4
:010CE20022EF
:03000700C2A3226F
:030CFE00D2A3225C
:030D0100B2A32278
:100B97008F80D2A7C2A7EB601174022DF582E434CF
:100BA70000F583E04480F580800D74022DF582E422
:0C0BB7003400F583E0F580D2A6C2A6222F
:10095800AE07AA03A905120B69900017E0FFAE01C4
:10096800AD060B120B72900018E0FFAE02AD061B2D
:10097800120B72900019E0FF9000B6E0FD0B120B0D
:100988007290001AE0FF9000B7E0FD1B120B729006
:10099800001BE0FF9000B8E0FD120B977F017E007E
:0309A800020B79C6
:100A8D00AA05A903AE07120B699000B2E0900017FA
:100A9D006007E0FFAD020B8008E0FFAE02AD06E49B
:100AAD00FB120B97120B75900018E0FFAE01120BA5
:100ABD006E900019E0FF9000B1E0FD120B977F01E1
:050ACD007E00020B7920
:100CE300438901758C3C758AB0D2AFD2A9D28C22CC
:100C0D009000ABEDF020B41512037070107F01FE53
:100C1D00120B7920B4077401120389FF229000ABE7
:030C2D00E0FF22C3
:100BE9009000ABEDF020B51612037070117F01FE75
:100BF900120B7920B50874011203897F0222900033
:040C0900ABE0FF223B
:1007EE009000ABEBF0A3EAF0A3E9F020B63B90004B
:1007FE00ABE0FBA3E0FAA3E0F9120370702B7F01CC
:10080E00FE120B7920B63A9000ABE0FBA3E0FAA300
:10081E00E0F974011203899000AEE0FBA3E0FAA3A5
:10082E00E0F9E4120389020CFE30B6159000ABE03D
:10083E00FBA3E0FAA3E0F9120370B40104E412037F
:02084E008922FD
:100C8B00741B2FF582E43400F583E0FFAE05AB0651
:090C9B007D08120C4FEFF4F590F6
:010CA400222D
:100C4F00C3ED9BFEEFA806088002C313D8FCFEADD0
:0D0C5F0003EFA805088002C333D8FC4EFF48
:010C6C002265
:040003007590FF22D3
:100CBF00438920758DFD758BFD439850D2ACC2AB27
:030CCF00D28E22A0
:10078A00120CE3120CBF12043A900029EFF0120B7C
:10079A00C3120CF31206267B017A007972900024A8
:1007AA00E0FD120C0D900024EFF0FD120BE9900011
:1007BA0024EFF09000AEEBF0A37400F0A37413F0F2
:1007CA007A0079901207EE900024E014600C14600D
:1007DA000E240270BF120B0980BA1206A480B51249
:0407EA000B3980B097
:03000B000208AC3C
:1008AC00C0E0C0F0C083C082C0D075D000C000C012
:1008BC0001C002C003C004C005C006C007758C3C53
:1008CC00758AB090006EE004F0E0B4140BE4F09084
:1008DC000000E004F0120BC3120C30D007D006D08D
:1008EC0005D004D003D002D001D000D0D0D082D01B
:0608FC0083D0F0D0E032D1
:10062600900000E0C3943C4011E4F0900014E00414
:10063600F0900013E060031209AB900014E0C3943D
:100646003C4008E4F0900071E004F0900071E0C3D3
:1006560094184010E4F0900070E004F012043A9010
:100666000029EFF090006CA3E0FF900028E0FD1257
:100676000C6D900070E0D39F40097401F090002843
:10068600E004F0900028E0D3940C40117401F0903F
:0E069600006DE004F0700690006CE004F022AD
:100B0900900014E0FF75F00A84AEF0EF75F00A84E6
:100B1900FF900000E0FD75F00A84ACF0ED75F00A75
:100B290084FBAD069000B1ECF0A37401F0020A8DCC
:1006A40090006CE0FEA3E0FBAA067C007D0AFF122A
:1006B40003CF9000ADEDF07C007D0AAF03AE0212D3
:1006C40003CFAA06AB077C007D0A1203CF9000ACCF
:1006D400EDF07C007D0AAF03AE021203CFAA06AB95
:1006E400077C007D0A1203CF9000ABEDF07C007D07
:1006F4000AAF03AE021203CFAA067C007D0A1203DE
:10070400CFAF05E0FDA3E0FBA3E09000B1F0E4A3CC
:04071400F0020A8D58
:100B3900900028E0FF75F00A84AEF0EF75F00A84A2
:100B4900FF900070E0FD75F00A84ACF0ED75F00AD5
:100B590084FBAD069000B1ECF0A37401F0020A8D9C
:100C3000900072E0B40117900012E004F0E0B43CC0
:0F0C40000DE4900072F0900024F0900012F0226A
:10043A0090006CE0FEA3E0FF900028E0FD900070C1
:02044A00E0FBD5
:08044C009000ABEEF0A3EFF00D
:10045400A3EBF0AF05A3EFF0C394035022E0FFB485
:100464000105740DF0800AEFB402069000AE740E1C
:10047400F09000ACE024FFF09000ABE034FFF0908B
:1004840000ABE0FEA3E0FF7C007D641203CFAB076A
:100494009000ABE0FEA3E0FF7C007D641203CFEB91
:1004A40075F002A4FFAC03EC1313543FC39FFFE4A5
:1004B40095F0FEED7A002FFFEA3EFEED1313543F54
:1004C4007C002FFBEC3EFA9000AEE02401FFE43305
:1004D400FE7D0D1203BD7D051203CFEF2BFFEE3A17
:1004E400FE9000ADE07C002FFFEC3ECF24FFCF3424
:0904F400FFFE7D071203CFAF05E6
:0104FD0022DC
:100BC300900029E0601912043A900029EFF0900098
:100BD30083E05407FD120C8B900083E004F0221293
:060BE3000003120D0122C7
:030023000204FED6
:1004FE00C0E0C0F0C083C082C0D075D000C000C0C4
:0D050E0001C002C003C004C005C006C00744
:10051B00309861C29890006FE599F0E0FF900091E0
:10052B00E0242AF582E43400F583EFF0900091E0AB
:10053B0004F0E0C394404002E4F0EF640A70357BB2
:10054B00017A00792A12000E900096EFF07B017A67
:10055B0000792ABF13051200268011900096E0FD4A
:10056B0012016A7B017A007973120902120CF39063
:04057B000091E4F017
:10057F00D007D006D005D004D003D002D001D000D0
:0B058F00D0D0D082D083D0F0D0E0327A
:0B002600900097EBF0A3EAF0A3E9F0D4
:10003100E4A3F0A3F090006CF0A3F0900028F090FE
:100041000070F0A3F0900014F0900000F090009781
:10005100E0FBA3E0FAA3E0F9120370FF640D700363
:10006100020169EF642F6009EF643A6004EFB42D77
:100071001090009AE004F0900098E475F0011204E9
:100081002490009AE014607414700302011014703B
:1000910003020123147003020136147003020149A3
:1000A100240570A9E490009CF090009CE0C39404A6
:1000B100509B900097E0FBA3E0FAA3E0F9120370D4
:1000C10024D090009BF0FB90006CE0FEA3E0FF7C4D
:1000D100007D0A1203BD90006CEEF0A3EFF0EBFF80
:1000E100E02FF090006CE03400F0900098E475F09F
:1000F1000112042490009CE004F080AD900097E090
:10010100FBA3E0FAA3E0F9120A6E900028804A905E
:100111000097E0FBA3E0FAA3E0F9120A6E900070E9
:100121008037900097E0FBA3E0FAA3E0F9120A6E92
:100131009000718024900097E0FBA3E0FAA3E0F91E
:10014100120A6E9000148011900097E0FBA3E0FA70
:10015100A3E0F9120A6E900000EFF0900098E475A8
:08016100F00212042402004E1A
:010169002273
:100A4600900097E0FBA3E0FAA3E02406F9E43AFA63
:100A5600120A6E90009DEFF0900097E0FBA3E0FA7B
:080A6600A3E0240AF9E43AFAC6
:100A6E00E4FEFD12037024D0FFEE75F00AA42FFEF3
:0E0A7E00740129F9E43AFA0DEDB402E7AF066F
:010A8C002247
:0A0CF3007F4090002AE4F0A3DFFC2C
:010CFD0022D4
:100AD200AB07AA06EB5403700AFC7D641203CFED48
:100AE2004C701E7C007D64AF03AE021203CFED4C4E
:100AF2007012AE02AF037C017D901203CFED4C70F9
:060B0200037F01227F00C9
:010B080022CA
:100C6D00A905E9B4020B7E00120AD2EF60037F1DC5
:0E0C7D0022748329F582E43400F583E0FF221F
:10000E00E4FF120370640D600A0F740129F9E43ADB
:03001E00FA80EF76
:0100210022BC
:10016A0090009AEDF0900097EBF0A3EAF0A3E9F083
:10017A00E490009BF0A3F0A3F0A3F0A3F0A3F0A3F4
:10018A00F012085090009BEEF0A3EFF090009AE076
:10019A00F9B41025A3E0FEA3E0FF120AD2EF900003
:1001AA0073600974CAF0A374C7F0800774B7F0A328
:1001BA0074F1F0900075020232E964187025120A8F
:1001CA004690009EEFF0FB90009BE0FEA3E0FFA3A9
:1001DA00E0FD12044C90009FEFF02430900073F081
:1001EA00A3804590009AE064167041900097E0FB66
:1001FA00A3E0FAA3E02406120A6A90009DEFF0FD3C
:10020A0090009BE0FEA3E0FF12071890009EEFF01B
:10021A00E0FD75F00A842430900073F0ED75F00A61
:10022A0084E5F02430A3F0A3743AF02290009AE017
:10023A00642A704D120A4690009EEFF0900097E0F3
:10024A00FBA3E0FAA3E0240E120A6A9000A0EFF0E2
:10025A00900097E0FBA3E0FAA3E02412120A6A9046
:10026A0000A1EFF0FC90009BE0FEA3E0FFA3E0FDFD
:10027A00A3E0FB9000A0E09000A6F0A3ECF0120926
:01028A00FB78
:01028B002250
:10085000E49000A2F0A3F0A3F0A3F09000A2E0C304
:100860009404503F12037024D09000A3F0A3E0FE44
:10087000A3E0FF7C007D0A1203BD9000A4EEF0A36C
:10088000EFF09000A3E0FF9000A5E02FF09000A40F
:10089000E03400F09000A2E004F0740129F9E43A99
:0B08A000FA80B89000A4E0FEA3E0FF87
:0108AB00222A
:0B090200900097EBF0A3EAF0A3E9F0EF
:10090D00A3EBF0A3EAF0A3E9F0900097E0FBA3E0DE
:10091D00FAA3E0F9120370FF643A60138F993099CE
:10092D00FDC299900098E475F00112042480DAE478
:10093D00FF90009AE0FBA3E0FAA3E0F98F827583A4
:0A094D0000E412039B0FEFB410E763
:01095700227D
:0B0718009000A2EEF0A3EFF0A3EDF0C4
:10072300E4A3F0F9A3F07B0112044C9000A5EFF0D1
:1007330070037407F09000A2A3E0FFA3E0FD120C86
:100743006DA9079000A5E0FFC374069FFEA3E02EEA
:10075300F0E0B4FF02E4F0C374089FFFC3E99FF91C
:1007630075F0078475F005A4FF9000A6E02FF0E96B
:1007730075F00784A9F0E9D3940540027905900048
:06078300A6E029F0E0FFF2
:01078900224D
:1009FB00900025EEF0A3EFF0900015EDF090006A5B
:100A0B00EBF09000A6E090006BF09000A7E0900058
:100A1B0001F09000137401F09000737449F0A3740B
:100A2B0074F0A37460F0A37473F0A3742DF0A3742B
:0B0A3B006FF0A3746BF0A3743AF0227C
:1009AB00900014E0FF900001E06F703B900071E04D
:1009BB00FF90006BE06F702F900028E0FF90001508
:1009CB00E0B5072B900070E0FF90006AE0B5071FC1
:1009DB0090006CE0FEA3E0FF900025E0B50610A3AD
:1009EB00E0B5070B020007120CFEE4900013F02297
:100CA500E4FF742A2FF582E43400F583E0F59930EA
:090CB50099FDC2990FEFB440E96A
:010CBE002213
:0300000002059A5C
:0C059A00787FE4F6D8FD7581070205E1CA
:10037000BB010689828A83E0225002E722BBFE028B
:09038000E32289828A83E49322BE
:10038900BB010689828A83F0225002F722BBFE0153
:02039900F3224D
:10039B00F8BB010DE58229F582E5833AF583E8F098
:1003AB00225006E92582C8F622BBFE05E92582C844
:0203BB00F2222C
:1003BD00EF8DF0A4A8F0CF8CF0A428CE8DF0A42E54
:0203CD00FE220E
:1003CF00BC000BBE0029EF8DF084FFADF022E4CC12
:1003DF00F875F008EF2FFFEE33FEEC33FCEE9DECDB
:1003EF00984005FCEE9DFE0FD5F0E9E4CEFD22ED21
:1003FF00F8F5F0EE8420D21CFEADF075F008EF2F6B
:10040F00FFED33FD4007985006D5F0F222C398FD5B
:05041F000FD5F0EA22F8
:10042400C5F0F8A3E028F0C5F0F8E5821582700263
:060434001583E038F02200
:1005A60002078AE493A3F8E493A34003F68001F2DA
:1005B60008DFF48029E493A3F85407240CC8C33356
:1005C600C4540F4420C8834004F456800146F6DF25
:1005D600E4800B010204081020408090028CE47E27
:1005E600019360BCA3FF543F30E509541FFEE4931A
:1005F600A360010ECF54C025E060A840B8E493A3E1
:10060600FAE493A3F8E493A3C8C582C8CAC583CA0B
:10061600F0A3C8C582C8CAC583CADFE9DEE780BEC3
:01036F00008D
:00000001FF
