:1002B5005000013F065B4F666D7D077F6F777C3988
:1002C5005E7971460013FEFDFBF7EFDF480019016B
:1002D50003070F1F3F7FFF42006B00004C00771F95
:1002E5001C1F1E1F1E1F1F1E1F1E1F6040002500F6
:1002F50000000000000000000000000000000000F9
:1003050000000000000000000000000000000000E8
:1003150000000000000000000000000000000000D8
:100325000000000000000000000000000000004880
:10033500006E0000000000000000410022004100A6
:10034500830041006D00410011004100760041002D
:100355006A004100120041000000410023014100F4
:1003650069154100240042006507E441006700412A
:0303750000210064
:10089200900013E0FFAD06E4FB1208C07F017E006A
:1008A200D3EF9400EE940040147D507C03ED1D7054
:0D08B200011CED4C70F7EF1F70E61E80E397
:0108BF002216
:100A0B00D3EF9400EE94004007EF1F70F31E80F0BD
:010A1B0022B8
:03000700C2A3226F
:030A3700D2A32225
:030A3A00B2A32242
:1008C0008F80D2A7C2A7EB601174012DF582E434AA
:1008D00000F583E04480F580800D74012DF582E4FD
:0C08E0003400F583E0F580D2A6C2A62209
:1006E500AE07AA03A905120892900014E0FFAE0117
:1006F500AD060B12089B900015E0FFAE02AD061B80
:1007050012089B900016E0FF9000A1E0FD0B120877
:100715009B900017E0FF9000A2E0FD1B12089B9044
:100725000018E0FF9000A3E0FD1208C07F017E00E5
:030735000208A215
:10078400AA05A903AE0712089290009DE0900014F8
:100794006007E0FFAD020B8008E0FFAE02AD06E4A7
:1007A400FB1208C012089E900015E0FFAE0112086B
:1007B40097900016E0FF90009CE0FD1208C07F01B6
:0507C4007E000208A206
:100A1C00438901758C3C758AB0D2AFD2A9D28C2295
:10096000900096EDF020B41512012770107F01FE63
:100970001208A220B4077401120140FF22900096D1
:03098000E0FF2273
:10093C00900096EDF020B51612012770117F01FE84
:10094C001208A220B50874011201407F0222900007
:04095C0096E0FF2200
:1009DE0074182FF582E43400F583E0FFAE05AB0604
:0909EE007D081209A2EFF4F59056
:0109F70022DD
:1009A200C3ED9BFEEFA806088002C313D8FCFEAD80
:0D09B20003EFA805088002C333D8FC4EFFF8
:0109BF002215
:040003007590FF22D3
:1009F800438920758DFD758BFD439850D2ACC2ABF1
:030A0800D28E2269
:10073800120A1C1209F81201F1900024EFF01209B4
:1007480016120A2C1205C47B017A00796D900021DB
:10075800E0FD120960900021EFF0FD12093C9000C5
:1007680021EFF014600C14600E240270D7120832C6
:0C07780080D212055080CD12086280C8AB
:03000B0002068F5B
:10068F00C0E0C0F0C083C082C0D075D000C000C031
:10069F0001C002C003C004C005C006C007758C3C72
:1006AF00758AB0900067E004F0E0B4140BE4F090AA
:1006BF000000E004F0120916120983D007D006D00B
:1006CF0005D004D003D002D001D000D0D0D082D03A
:0606DF0083D0F0D0E032F0
:1005C400900000E0C3943C4008E4F0900012E00482
:1005D400F0900012E0C3943C4008E4F090006AE01C
:1005E40004F090006AE0C394184010E4F0900069AD
:1005F400E004F01201F1900024EFF0900023E0FFFA
:100604001209C0900069E0D39F40097401F0900082
:1006140023E004F0900023E0D3940C40117401F023
:0F062400900066E004F07006900065E004F0229C
:10083200900012E0FF75F00A84AEF0EF75F00A84C2
:10084200FF900000E0FD75F00A84ACF0ED75F00A4F
:1008520084FBAD0690009CECF0A37401F0020784C7
:10055000900065E0FEA3E0FBAA067C007D0AFF1286
:100560000186900098EDF07C007D0AAF03AE021288
:100570000186AA06AB077C007D0A120186900097CF
:10058000EDF07C007D0AAF03AE02120186AA06AB35
:10059000077C007D0A120186900096EDF07C007DBC
:1005A0000AAF03AE02120186AA067C007D0A120180
:1005B00086AF05E0FDA3E0FBA3E090009CF0E4A380
:0405C000F0020784BA
:10086200900023E0FF75F00A84AEF0EF75F00A8481
:10087200FF900069E0FD75F00A84ACF0ED75F00AB6
:1008820084FBAD0690009CECF0A37401F002078497
:1009830090006DE0B40117900011E004F0E0B43C76
:0F0993000DE490006DF0900021F0900011F02223
:1001F100900065E0FEA3E0FF900023E0FD90006920
:02020100E0FB20
:08020300900096EEF0A3EFF06D
:10020B00A3EBF0AF05A3EFF0C394035022E0FFB4D0
:10021B000105740DF0800AEFB40206900099740E7C
:10022B00F0900097E024FFF0900096E034FFF09000
:10023B000096E0FEA3E0FF7C007D64120186AB0715
:10024B00900096E0FEA3E0FF7C007D64120186EB3C
:10025B0075F002A4FFAC03EC1313543FC39FFFE4F0
:10026B0095F0FEED7A002FFFEA3EFEED1313543F9F
:10027B007C002FFBEC3EFA900099E02401FFE43365
:10028B00FE7D0D1201747D05120186EF2BFFEE3AF8
:10029B00FE900098E07C002FFFEC3ECF24FFCF3484
:0902AB00FFFE7D07120186AF057C
:0102B4002227
:10091600900024E060191201F1900024EFF090009D
:1009260076E05407FD1209DE900076E004F022120C
:060936000003120A3A2240
:03002300020423B1
:10042300C0E0C0F0C083C082C0D075D000C000C09F
:0D04330001C002C003C004C005C006C00720
:10044000309861C298900068E599F0E0FF900083D1
:10045000E02425F582E43400F583EFF0900083E09A
:1004600004F0E0C394204002E4F0EF640A70357BAE
:10047000017A00792512000E900088EFF07B017A56
:10048000007925BF13051200268011900088E0FD39
:100490001203797B017A00796E120800120A2C90FF
:0904A0000083E4F0309902C299D6
:1004A900D007D006D005D004D003D002D001D000A7
:0B04B900D0D0D082D083D0F0D0E03251
:0B002600900089EBF0A3EAF0A3E9F0E2
:10003100E4A3F0A3F0900065F0A3F0900023F0900A
:100041000069F0A3F0900012F0900000F090008998
:10005100E0FBA3E0FAA3E0F9120127FF640D7003AE
:10006100020126EF642F6009EF643A6004EFB42DBA
:100071001090008CE004F090008AE475F001120108
:10008100DB90008CE014606814606D146072146081
:100091007714607C240570B5E490008EF090008E9A
:1000A100E0C3940450A7900089E0FBA3E0FAA3E029
:1000B100F912012724D090008DF0FB900065E0FE3D
:1000C100A3E0FF7C007D0A120174900065EEF0A3AD
:1000D100EFF0EBFFE02FF0900065E03400F09000CE
:1000E1008AE475F0011201DB90008EE004F080AD2E
:1000F1001208EC900023801E1208EC900069801613
:100101001208EC90006A800E1208EC900012800632
:100111001208EC900000EFF090008AE475F00212F2
:0501210001DB02004EAD
:0101260022B6
:0B08EC00900089E0FBA3E0FAA3E0F914
:1008F700E4FEFD12012724D0FFEE75F00AA42FFEB7
:0E090700740129F9E43AFA0DEDB402E7AF06E7
:0109150022BF
:0A0A2C007F40900025E4F0A3DFFCFA
:010A3600229D
:1007C900AB07AA06EB5403700AFC7D64120186ED9F
:1007D9004C701E7C007D64AF03AE02120186ED4CA5
:1007E9007012AE02AF037C017D90120186ED4C7050
:0607F900037F01227F00D6
:0107FF0022D7
:1009C000A907E9B4020B7E001207C9EF60037F1D7F
:0E09D00022747629F582E43400F583E0FF22DC
:10000E00E4FF120127640D600A0F740129F9E43A26
:03001E00FA80EF76
:0100210022BC
:1003790090008CEDF0900089EBF0A3EAF0A3E9F08E
:10038900E490008DF0A3F0A3F0A3F0A3F0120633DC
:1003990090008DEEF0A3EFF090008CE0F9B41026F8
:1003A900A3E0FEA3E0FF1207C9EF90006E60097495
:1003B900CAF0A374C7F0800774B7F0A374F1F09082
:1003C9000070743AF022E96418704E900089E0FBDD
:1003D900A3E0FAA3E02406F9E43AFA1208F7900038
:1003E9008FEFF0900089E0FBA3E0FAA3E0240AF97B
:1003F900E43AFA1208F7900090EFF0FB90008DE0D4
:10040900FEA3E0FFA3E0FD120203900091EFF024A8
:090419003090006EF0A3743AF07B
:0104220022B7
:10063300E4900092F0A3F0A3F0A3F0900092E0C343
:100643009404503F12012724D0900093F0A3E0FEBE
:10065300A3E0FF7C007D0A120174900094EEF0A3E6
:10066300EFF0900093E0FF900095E02FF09000945E
:10067300E03400F0900092E004F0740129F9E43AC8
:0B068300FA80B8900094E0FEA3E0FFB6
:01068E002249
:10080000120127FF643A600E8F993099FD74012917
:10081000F9E43AFA80EAE4FF900089E0FBA3E0FA09
:10082000A3E0F98F82758300E41201520FEFB40840
:01083000E7E0
:0108310022A4
:030000000204C433
:0C04C400787FE4F6D8FD75810702050B77
:10012700BB010689828A83E0225002E722BBFE02D6
:09013700E32289828A83E4932209
:10014000BB010689828A83F0225002F722BBFE019E
:02015000F32298
:10015200F8BB010DE58229F582E5833AF583E8F0E3
:10016200225006E92582C8F622BBFE05E92582C88F
:02017200F22277
:10017400EF8DF0A4A8F0CF8CF0A428CE8DF0A42E9F
:02018400FE2259
:10018600BC000BBE0029EF8DF084FFADF022E4CC5D
:10019600F875F008EF2FFFEE33FEEC33FCEE9DEC26
:1001A600984005FCEE9DFE0FD5F0E9E4CEFD22ED6C
:1001B600F8F5F0EE8420D21CFEADF075F008EF2FB6
:1001C600FFED33FD4007985006D5F0F222C398FDA7
:0501D6000FD5F0EA2244
:1001DB00C5F0F8A3E028F0C5F0F8E58215827002AF
:0601EB001583E038F0224C
:1004D000020738E493A3F8E493A34003F68001F203
:1004E00008DFF48029E493A3F85407240CC8C3332D
:1004F000C4540F4420C8834004F456800146F6DFFC
:10050000E4800B01020408102040809002B5E47ED4
:10051000019360BCA3FF543F30E509541FFEE493F0
:10052000A360010ECF54C025E060A840B8E493A3B7
:10053000FAE493A3F8E493A3C8C582C8CAC583CAE2
:10054000F0A3C8C582C8CAC583CADFE9DEE780BE9A
:010378000084
:00000001FF
