:1002630010093F065B4F666D7D077F6F777C395EB4
:100273007971061BFEFDFBF7EFDF08210103070F72
:100283001F3F7FFF013100011900013200013000DF
:10029300011A00010800012A0C012F1F012B000283
:0902A3002C07E3012E00012900E3
:0D034E00AD07AF1BE4FB1203EF7F017E0043
:10035B00D3EF9400EE940040147D507C03ED1D70A0
:0D036B00011CED4C70F7EF1F70E61E80E3E3
:010378002262
:03000300C2A32273
:03000600D2A32260
:03049800B2A322EA
:1003EF008F80D2A7C2A7EB600B74092DF8E644806B
:1003FF00F580800774092DF8E6F580D2A6C2A622F3
:1002EA00AA03A90512034EAD010BAF1C120354ADAC
:1002FA00021BAF1D1203540BAD3EAF1E1203541B5B
:10030A00AD3FAF1F120354AD40AF201203EF7F0180
:05031A007E0002035B00
:10031F00AA05A90312034EE53AAD0260030B800252
:10032F00E4FBAF1C1203EF120357AD01AF1D120315
:0F033F0052AD39AF1E1203EF7F017E0002035B48
:10048800758901758C3C758AB0D2AFD2A9D28C22FD
:10042D008D3320B41512000E70107F01FE12035B88
:0D043D0020B4077401120027FF22AF332204
:10040F008D3320B51612000E70117F01FE12035BA3
:0E041F0020B50874011200277F0222AF33229D
:10044A0074202FF8E6FFAE05A806088002C333D849
:04045A00FCF4F59029
:01045E00227B
:1002AD0012048812012C8F2B12045F1203797B002C
:1002BD007A007931AD2912042D8F29AD2912040F41
:1002CD008F29E52914600C14600E240270DD1203D1
:0D02DD00A380D81201AF80D31203C980CED8
:03000B00020213DB
:10021300C0E0C0F0C083C082C0D075D000C000C0B1
:1002230001C002C003C004C005C006C007758C3CF2
:10023300758AB0052EE52EB41408752E0005081234
:10024300045F120474D007D006D005D004D003D0C5
:1002530002D001D000D0D0D082D083D0F0D0E03211
:10037900E508C3943C4005E4F508051AE51AC39459
:100389003C4005E4F51A0530E530C39418400AE409
:0A039900F530052F12012C8F2B22E6
:1003A300E51A75F00A84ADF0E51A75F00A84FFE5E5
:1003B3000875F00A84AEF0E50875F00A84FB8E39FF
:0603C300753A0102031F60
:1001AF00AB2DAA2C7C007D0AAF03AE0212004B8D43
:1001BF00357C007D0AAF03AE0212004BAA06AB07D7
:1001CF007C007D0A12004B8D347C007D0AAF03AE9C
:1001DF000212004BAA06AB077C007D0A12004B8D62
:1001EF00337C007D0AAF03AE0212004BAA067C00DF
:1001FF007D0A12004BAF05853539E4F53AAB34ADC6
:04020F003302031F94
:1003C900E52A75F00A84ADF0E52A75F00A84FFE59F
:1003D9002F75F00A84AEF0E52F75F00A84FB8E398B
:0603E900753A0102031F3A
:10047400E531B4010E0519E519B43C07E4F531F58D
:0404840029F519221B
:10012C00AE2CAF2D7C007D6412004BAB07AE2CAF18
:10013C002D7C007D6412004B852F33A92AE9C394D2
:10014C0003500CB90104790D8005B90202790EEB4C
:10015C0075F002A4FFEB1313543FC39FFFE495F01B
:10016C00FEED7A002FFFEA3EFEED1313543F7C00A8
:10017C002FFBEC3EFAE92401FFE433FE7D0D120067
:10018C00397D0512004BEF2BFFEE3AFE7C00EF257C
:10019C0033FFEC3ECF24FFCF34FFFE7D0712004B24
:0201AC00AF059D
:0101AE00222E
:10045F00E52B600DE5325407FDAF2B12044A053230
:05046F00221204982296
:030000000200A05B
:0C00A000787FE4F6D8FD7581400200E78F
:10000E00BB010689828A83E0225002E722BBFE02F0
:09001E00E32289828A83E4932223
:10002700BB010689828A83F0225002F722BBFE01B8
:02003700F322B2
:10003900EF8DF0A4A8F0CF8CF0A428CE8DF0A42EDB
:02004900FE2295
:10004B00BC000BBE0029EF8DF084FFADF022E4CC99
:10005B00F875F008EF2FFFEE33FEEC33FCEE9DEC62
:10006B00984005FCEE9DFE0FD5F0E9E4CEFD22EDA8
:10007B00F8F5F0EE8420D21CFEADF075F008EF2FF2
:10008B00FFED33FD4007985006D5F0F222C398FDE3
:05009B000FD5F0EA2280
:1000AC000202ADE493A3F8E493A34003F68001F2BB
:1000BC0008DFF48029E493A3F85407240CC8C33355
:1000CC00C4540F4420C8834004F456800146F6DF24
:1000DC00E4800B0102040810204080900263E47E4F
:1000EC00019360BCA3FF543F30E509541FFEE49319
:1000FC00A360010ECF54C025E060A840B8E493A3E0
:10010C00FAE493A3F8E493A3C8C582C8CAC583CA0A
:10011C00F0A3C8C582C8CAC583CADFE9DEE780BEC2
:0102AC000051
:00000001FF
