:1002AD005000023F065B4F666D7D077F6F777C398F
:1002BD005E7971460016FEFDFBF7EFDF48001C016D
:1002CD0003070F1F3F7FFF4200250000410015006F
:1002DD0041006A0041006B00410001004100130024
:1002ED004C00841F1C1F1E1F1E1F1F1E1F1E1F6064
:1002FD0040002A0000000000000000000000000087
:10030D0000000000000000000000000000000000E0
:10031D0000000000000000000000000000000000D0
:10032D0000000000000000000000000000000000C0
:10033D0000000050007300000000000000000000ED
:10034D000000000000004100270041009100410025
:10035D0090004100720041001200410083004100F5
:10036D0071004100140041000000410028014100CE
:10037D0070154100290042006C07E441006E0041F8
:03038D0000240049
:100B9200900016E0FFAD06E4FB120BC07F017E0061
:100BA200D3EF9400EE940040147D507C03ED1D7051
:0D0BB200011CED4C70F7EF1F70E61E80E394
:010BBF002213
:100CFB00D3EF9400EE94004007EF1F70F31E80F0CB
:010D0B0022C5
:03000700C2A3226F
:030D2700D2A32232
:030D2A00B2A3224F
:100BC0008F80D2A7C2A7EB601174022DF582E434A6
:100BD00000F583E04480F580800D74022DF582E4F9
:0C0BE0003400F583E0F580D2A6C2A62206
:10097900AE07AA03A905120B92900017E0FFAE017A
:10098900AD060B120B9B900018E0FFAE02AD061BE3
:10099900120B9B900019E0FF9000B6E0FD0B120BC3
:1009A9009B90001AE0FF9000B7E0FD1B120B9B9093
:1009B900001BE0FF9000B8E0FD120BC07F017E0034
:0309C900020BA27C
:100AB600AA05A903AE07120B929000B2E0900017A8
:100AC6006007E0FFAD020B8008E0FFAE02AD06E472
:100AD600FB120BC0120B9E900018E0FFAE01120B2A
:100AE60097900019E0FF9000B1E0FD120BC07F0166
:050AF6007E00020BA2CE
:100D0C00438901758C3C758AB0D2AFD2A9D28C22A2
:100C36009000ABEDF020B41512039170107F01FE09
:100C4600120BA220B40774011203AAFF229000AB74
:030C5600E0FF229A
:100C12009000ABEDF020B51612039170117F01FE2A
:100C2200120BA220B50874011203AA7F02229000BF
:040C3200ABE0FF2212
:10080F009000ABEBF0A3EAF0A3E9F020B63B900029
:10081F00ABE0FBA3E0FAA3E0F9120391702B7F0189
:10082F00FE120BA220B63A9000ABE0FBA3E0FAA3B6
:10083F00E0F974011203AA9000AEE0FBA3E0FAA363
:10084F00E0F9E41203AA020D2730B6159000ABE0D1
:10085F00FBA3E0FAA3E0F9120391B40104E412033D
:02086F00AA22BB
:100CB400741B2FF582E43400F583E0FFAE05AB0628
:090CC4007D08120C78EFF4F590A4
:010CCD002204
:100C7800C3ED9BFEEFA806088002C313D8FCFEADA7
:0D0C880003EFA805088002C333D8FC4EFF1F
:010C9500223C
:040003007590FF22D3
:100CE800438920758DFD758BFD439850D2ACC2ABFE
:030CF800D28E2277
:1007AB00120D0C120CE812045B900029EFF0120BE7
:1007BB00EC120D1C1206477B017A00797290002413
:1007CB00E0FD120C36900024EFF0FD120C1290009D
:1007DB0024EFF09000AEEBF0A37400F0A37413F0D1
:1007EB007A00799012080F900024E014600C1460CA
:1007FB000E240270BF120B3280BA1206C580B512DE
:04080B000B6280B04C
:03000B000208CD1B
:1008CD00C0E0C0F0C083C082C0D075D000C000C0F1
:1008DD0001C002C003C004C005C006C007758C3C32
:1008ED00758AB090006EE004F0E0B4140BE4F09063
:1008FD000000E004F0120BEC120C59D007D006D01A
:10090D0005D004D003D002D001D000D0D0D082D0F9
:06091D0083D0F0D0E032AF
:10064700900000E0C3943C4011E4F0900014E004F3
:10065700F0900013E06003120A1F900014E0C394A7
:100667003C4008E4F0900071E004F0900071E0C3B2
:1006770094184010E4F0900070E004F012045B90CE
:100687000029EFF090006CA3E0FF900028E0FD1236
:100697000C96900070E0D39F40097401F0900028F9
:1006A700E004F0900028E0D3940C40117401F0901E
:0E06B700006DE004F0700690006CE004F0228C
:100B3200900014E0FF75F00A84AEF0EF75F00A84BD
:100B4200FF900000E0FD75F00A84ACF0ED75F00A4C
:100B520084FBAD069000B1ECF0A37401F0020AB67A
:1006C50090006CE0FEA3E0FBAA067C007D0AFF1209
:1006D50003F09000ADEDF07C007D0AAF03AE021291
:1006E50003F0AA06AB077C007D0A1203F09000AC6C
:1006F500EDF07C007D0AAF03AE021203F0AA06AB53
:10070500077C007D0A1203F09000ABEDF07C007DC4
:100715000AAF03AE021203F0AA067C007D0A12039B
:10072500F0AF05E0FDA3E0FBA3E09000B1F0E4A38A
:04073500F0020AB60E
:100B6200900028E0FF75F00A84AEF0EF75F00A8479
:100B7200FF900070E0FD75F00A84ACF0ED75F00AAC
:100B820084FBAD069000B1ECF0A37401F0020AB64A
:100C5900900072E0B40117900012E004F0E0B43C97
:0F0C69000DE4900072F0900024F0900012F02241
:10045B0090006CE0FEA3E0FF900028E0FD900070A0
:02046B00E0FBB4
:08046D009000ABEEF0A3EFF0EC
:10047500A3EBF0AF05A3EFF0C394035022E0FFB464
:100485000105740DF0800AEFB402069000AE740EFB
:10049500F09000ACE024FFF09000ABE034FFF0906A
:1004A50000ABE0FEA3E0FF7C007D641203F0AB0728
:1004B5009000ABE0FEA3E0FF7C007D641203F0EB4F
:1004C50075F002A4FFAC03EC1313543FC39FFFE484
:1004D50095F0FEED7A002FFFEA3EFEED1313543F33
:1004E5007C002FFBEC3EFA9000AEE02401FFE433E4
:1004F500FE7D0D1203DE7D051203F0EF2BFFEE3AB4
:10050500FE9000ADE07C002FFFEC3ECF24FFCF3402
:09051500FFFE7D071203F0AF05A3
:01051E0022BA
:100BEC00900029E0601912045B900029EFF090004E
:100BFC0083E05407FD120CB4900083E004F0221241
:060C0C000003120D2A2274
:0300230002051FB4
:10051F00C0E0C0F0C083C082C0D075D000C000C0A2
:0D052F0001C002C003C004C005C006C00723
:10053C00309861C29890006FE599F0E0FF900091BF
:10054C00E0242AF582E43400F583EFF0900091E08A
:10055C0004F0E0C394404002E4F0EF640A70357B91
:10056C00017A00792A12000E900096EFF07B017A46
:10057C0000792ABF13051200268011900096E0FD29
:10058C0012016A7B017A007973120923120D1C90F7
:04059C000091E4F0F6
:1005A000D007D006D005D004D003D002D001D000AF
:0B05B000D0D0D082D083D0F0D0E03259
:0B002600900097EBF0A3EAF0A3E9F0D4
:10003100E4A3F0A3F090006CF0A3F0900028F090FE
:100041000070F0A3F0900014F0900000F090009781
:10005100E0FBA3E0FAA3E0F9120391FF640D700342
:10006100020169EF642F6009EF643A6004EFB42D77
:100071001090009AE004F0900098E475F0011204E9
:100081004590009AE014607414700302011014701A
:1000910003020123147003020136147003020149A3
:1000A100240570A9E490009CF090009CE0C39404A6
:1000B100509B900097E0FBA3E0FAA3E0F9120391B3
:1000C10024D090009BF0FB90006CE0FEA3E0FF7C4D
:1000D100007D0A1203DE90006CEEF0A3EFF0EBFF5F
:1000E100E02FF090006CE03400F0900098E475F09F
:1000F1000112044590009CE004F080AD900097E06F
:10010100FBA3E0FAA3E0F9120A97900028804A9035
:100111000097E0FBA3E0FAA3E0F9120A97900070C0
:100121008037900097E0FBA3E0FAA3E0F9120A9769
:100131009000718024900097E0FBA3E0FAA3E0F91E
:10014100120A979000148011900097E0FBA3E0FA47
:10015100A3E0F9120A97900000EFF0900098E4757F
:08016100F00212044502004EF9
:010169002273
:100A6F00900097E0FBA3E0FAA3E02406F9E43AFA3A
:100A7F00120A9790009DEFF0900097E0FBA3E0FA29
:080A8F00A3E0240AF9E43AFA9D
:100A9700E4FEFD12039124D0FFEE75F00AA42FFEA9
:0E0AA700740129F9E43AFA0DEDB402E7AF0646
:010AB500221E
:0A0D1C007F4090002AE4F0A3DFFC02
:010D260022AA
:100AFB00AB07AA06EB5403700AFC7D641203F0EDFE
:100B0B004C701E7C007D64AF03AE021203F0ED4C03
:100B1B007012AE02AF037C017D901203F0ED4C70AE
:060B2B00037F01227F00A0
:010B310022A1
:100C9600A905E9B4020B7E00120AFBEF60037F1D73
:0E0CA60022748329F582E43400F583E0FF22F6
:10000E00E4FF120391640D600A0F740129F9E43ABA
:03001E00FA80EF76
:0100210022BC
:10016A0090009AEDF0900097EBF0A3EAF0A3E9F083
:10017A00E490009BF0A3F0A3F0A3F0A3F0A3F0A3F4
:10018A00F012087190009BEEF0A3EFF090009AE055
:10019A00F964107025A3E0FEA3E0FF120AFBEF90BA
:1001AA000073600974CAF0A374C7F0800774B7F0CB
:1001BA00A374F1F090007502024BE96418703512CD
:1001CA000A6F90009EEFF0FB90009BE0FEA3E0FF19
:1001DA00A3E0FD12046D90009FEFF090007374D0BD
:1001EA00F0A374C7F0A314F0A374DAF0EF2430A3D9
:1001FA00F0A3804D90009AE064167051900097E049
:10020A00FBA3E0FAA3E02406120A9390009DEFF004
:10021A00FD90009BE0FEA3E0FF12073990009EEFDD
:10022A00F0E0FD75F00A842430900073F0ED75F06B
:10023A000A84E5F02430A3F0A374CCF0A374ECF0A4
:10024A00A3740DF0A3740AF0A3743AF02290009AF2
:10025A00E0642A704D120A6F90009EEFF0900097AA
:10026A00E0FBA3E0FAA3E0240E120A939000A0EFA9
:10027A00F0900097E0FBA3E0FAA3E02412120A939D
:10028A009000A1EFF0FC90009BE0FEA3E0FFA3E04A
:10029A00FDA3E0FB9000A0E09000A6F0A3ECF01212
:0202AA0009CC7D
:0102AC00222F
:10087100E49000A2F0A3F0A3F0A3F09000A2E0C3E3
:100881009404503F12039124D09000A3F0A3E0FE02
:10089100A3E0FF7C007D0A1203DE9000A4EEF0A32A
:1008A100EFF09000A3E0FF9000A5E02FF09000A4EE
:1008B100E03400F09000A2E004F0740129F9E43A78
:0B08C100FA80B89000A4E0FEA3E0FF66
:0108CC002209
:0B092300900097EBF0A3EAF0A3E9F0CE
:10092E00A3EBF0A3EAF0A3E9F0900097E0FBA3E0BD
:10093E00FAA3E0F9120391FF643A60138F9930998C
:10094E00FDC299900098E475F00112044580DAE436
:10095E00FF90009AE0FBA3E0FAA3E0F98F82758383
:0A096E0000E41203BC0FEFB410E721
:01097800225C
:0B0739009000A2EEF0A3EFF0A3EDF0A3
:10074400E4A3F0F9A3F07B0112046D9000A5EFF08F
:1007540070037407F09000A2A3E0FFA3E0FD120C65
:1007640096A9079000A5E0FFC374069FFEA3E02EA0
:10077400F0E0B4FF02E4F0C374089FFFC3E99FF9FB
:1007840075F0078475F005A4FF9000A6E02FF0E94A
:1007940075F00784A9F0E9D3940540027905900027
:0607A400A6E029F0E0FFD1
:0107AA00222C
:1009CC00900025EEF0A3EFF0900015EDF090006A8A
:1009DC00EBF09000A6E090006BF09000A7E0900088
:1009EC0001F09000137401F09000737449F0A3743B
:1009FC0074F0A37460F0A37473F0A3742DF0A3745B
:100A0C006FF0A3746BF0A3740DF0A3740AF0A374CD
:030A1C003AF0228B
:100A1F00900014E0FF900001E06F703B900071E0D8
:100A2F00FF90006BE06F702F900028E0FF90001593
:100A3F00E0B5072B900070E0FF90006AE0B5071F4C
:100A4F0090006CE0FEA3E0FF900025E0B50610A338
:100A5F00E0B5070B020007120D27E4900013F022F8
:100CCE00E4FF742A2FF582E43400F583E0F59930C1
:090CDE0099FDC2990FEFB440E941
:010CE70022EA
:030000000205BB3B
:0C05BB00787FE4F6D8FD75810702060287
:10039100BB010689828A83E0225002E722BBFE026A
:0903A100E32289828A83E493229D
:1003AA00BB010689828A83F0225002F722BBFE0132
:0203BA00F3222C
:1003BC00F8BB010DE58229F582E5833AF583E8F077
:1003CC00225006E92582C8F622BBFE05E92582C823
:0203DC00F2220B
:1003DE00EF8DF0A4A8F0CF8CF0A428CE8DF0A42E33
:0203EE00FE22ED
:1003F000BC000BBE0029EF8DF084FFADF022E4CCF1
:10040000F875F008EF2FFFEE33FEEC33FCEE9DECB9
:10041000984005FCEE9DFE0FD5F0E9E4CEFD22EDFF
:10042000F8F5F0EE8420D21CFEADF075F008EF2F49
:10043000FFED33FD4007985006D5F0F222C398FD3A
:050440000FD5F0EA22D7
:10044500C5F0F8A3E028F0C5F0F8E5821582700242
:060455001583E038F022DF
:1005C7000207ABE493A3F8E493A34003F68001F298
:1005D70008DFF48029E493A3F85407240CC8C33335
:1005E700C4540F4420C8834004F456800146F6DF04
:1005F700E4800B01020408102040809002ADE47EE5
:10060700019360BCA3FF543F30E509541FFEE493F8
:10061700A360010ECF54C025E060A840B8E493A3BF
:10062700FAE493A3F8E493A3C8C582C8CAC583CAEA
:10063700F0A3C8C582C8CAC583CADFE9DEE780BEA2
:01039000006C
:00000001FF
